{
  "_format": "hh-sol-artifact-1",
  "contractName": "Crowdfunding",
  "sourceName": "contracts/Crowdfunding.sol",
  "abi": [
    {
      "anonymous": false,
      "inputs": [
        {
          "indexed": false,
          "internalType": "address",
          "name": "contractAddress",
          "type": "address"
        },
        {
          "indexed": false,
          "internalType": "address",
          "name": "projectStarter",
          "type": "address"
        },
        {
          "indexed": false,
          "internalType": "string",
          "name": "projectTitle",
          "type": "string"
        },
        {
          "indexed": false,
          "internalType": "string",
          "name": "projectDesc",
          "type": "string"
        },
        {
          "indexed": false,
          "internalType": "uint256",
          "name": "deadline",
          "type": "uint256"
        },
        {
          "indexed": false,
          "internalType": "uint256",
          "name": "goalAmount",
          "type": "uint256"
        }
      ],
      "name": "ProjectStarted",
      "type": "event"
    },
    {
      "inputs": [
        {
          "internalType": "uint256",
          "name": "",
          "type": "uint256"
        }
      ],
      "name": "projects",
      "outputs": [
        {
          "internalType": "contract Project",
          "name": "",
          "type": "address"
        }
      ],
      "stateMutability": "view",
      "type": "function"
    },
    {
      "inputs": [],
      "name": "returnAllProjects",
      "outputs": [
        {
          "internalType": "contract Project[]",
          "name": "",
          "type": "address[]"
        }
      ],
      "stateMutability": "view",
      "type": "function"
    },
    {
      "inputs": [
        {
          "internalType": "string",
          "name": "title",
          "type": "string"
        },
        {
          "internalType": "string",
          "name": "description",
          "type": "string"
        },
        {
          "internalType": "uint256",
          "name": "durationInDays",
          "type": "uint256"
        },
        {
          "internalType": "uint256",
          "name": "amountToRaise",
          "type": "uint256"
        },
        {
          "internalType": "uint256",
          "name": "minimumContribution",
          "type": "uint256"
        }
      ],
      "name": "startProject",
      "outputs": [],
      "stateMutability": "nonpayable",
      "type": "function"
    }
  ],
  "bytecode": "0x608060405234801561001057600080fd5b50613460806100206000396000f3fe60806040523480156200001157600080fd5b5060043610620000465760003560e01c8063107046bd146200004b57806385b6e28e1462000081578063cea49ee014620000a3575b600080fd5b62000069600480360381019062000063919062000420565b620000c3565b6040516200007891906200067a565b60405180910390f35b6200008b62000103565b6040516200009a919062000656565b60405180910390f35b620000c16004803603810190620000bb919062000363565b62000193565b005b60008181548110620000d457600080fd5b906000526020600020016000915054906101000a900473ffffffffffffffffffffffffffffffffffffffff1681565b606060008054806020026020016040519081016040528092919081815260200182805480156200018957602002820191906000526020600020905b8160009054906101000a900473ffffffffffffffffffffffffffffffffffffffff1673ffffffffffffffffffffffffffffffffffffffff16815260200190600101908083116200013e575b5050505050905090565b6000620001bf620001af603c86620002c190919063ffffffff16565b42620002d990919063ffffffff16565b905060003389898989868989604051620001d990620002f1565b620001ec98979695949392919062000558565b604051809103906000f08015801562000209573d6000803e3d6000fd5b5090506000819080600181540180825580915050600190039060005260206000200160009091909190916101000a81548173ffffffffffffffffffffffffffffffffffffffff021916908373ffffffffffffffffffffffffffffffffffffffff1602179055507f6218c120ad6d836da0bfe4d4c44c8375356514fce6ae39ecdcd483fad6056e6681338b8b8b8b888b604051620002ae989796959493929190620005d7565b60405180910390a1505050505050505050565b60008183620002d191906200073e565b905092915050565b60008183620002e99190620006e1565b905092915050565b612ba8806200088383390190565b60008083601f8401126200031257600080fd5b8235905067ffffffffffffffff8111156200032c57600080fd5b6020830191508360018202830111156200034557600080fd5b9250929050565b6000813590506200035d8162000868565b92915050565b600080600080600080600060a0888a0312156200037f57600080fd5b600088013567ffffffffffffffff8111156200039a57600080fd5b620003a88a828b01620002ff565b9750975050602088013567ffffffffffffffff811115620003c857600080fd5b620003d68a828b01620002ff565b95509550506040620003eb8a828b016200034c565b9350506060620003fe8a828b016200034c565b9250506080620004118a828b016200034c565b91505092959891949750929550565b6000602082840312156200043357600080fd5b600062000443848285016200034c565b91505092915050565b60006200045a8383620004f2565b60208301905092915050565b6200047181620007b3565b82525050565b62000482816200079f565b82525050565b60006200049582620006a7565b620004a18185620006bf565b9350620004ae8362000697565b8060005b83811015620004e5578151620004c988826200044c565b9750620004d683620006b2565b925050600181019050620004b2565b5085935050505092915050565b620004fd81620007f1565b82525050565b6200050e81620007f1565b82525050565b6000620005228385620006d0565b93506200053183858462000819565b6200053c8362000857565b840190509392505050565b6200055281620007e7565b82525050565b600060c0820190506200056f600083018b62000466565b81810360208301526200058481898b62000514565b905081810360408301526200059b81878962000514565b9050620005ac606083018662000547565b620005bb608083018562000547565b620005ca60a083018462000547565b9998505050505050505050565b600060c082019050620005ee600083018b62000477565b620005fd602083018a62000477565b81810360408301526200061281888a62000514565b905081810360608301526200062981868862000514565b90506200063a608083018562000547565b6200064960a083018462000547565b9998505050505050505050565b6000602082019050818103600083015262000672818462000488565b905092915050565b600060208201905062000691600083018462000503565b92915050565b6000819050602082019050919050565b600081519050919050565b6000602082019050919050565b600082825260208201905092915050565b600082825260208201905092915050565b6000620006ee82620007e7565b9150620006fb83620007e7565b9250827fffffffffffffffffffffffffffffffffffffffffffffffffffffffffffffffff0382111562000733576200073262000828565b5b828201905092915050565b60006200074b82620007e7565b91506200075883620007e7565b9250817fffffffffffffffffffffffffffffffffffffffffffffffffffffffffffffffff048311821515161562000794576200079362000828565b5b828202905092915050565b6000620007ac82620007c7565b9050919050565b6000620007c082620007c7565b9050919050565b600073ffffffffffffffffffffffffffffffffffffffff82169050919050565b6000819050919050565b6000620007fe8262000805565b9050919050565b60006200081282620007c7565b9050919050565b82818337600083830152505050565b7f4e487b7100000000000000000000000000000000000000000000000000000000600052601160045260246000fd5b6000601f19601f8301169050919050565b6200087381620007e7565b81146200087f57600080fd5b5056fe60806040526000600960006101000a81548160ff0219169083600281111562000051577f4e487b7100000000000000000000000000000000000000000000000000000000600052602160045260246000fd5b02179055503480156200006357600080fd5b5060405162002ba838038062002ba883398181016040528101906200008991906200027c565b856000806101000a81548173ffffffffffffffffffffffffffffffffffffffff021916908373ffffffffffffffffffffffffffffffffffffffff1602179055508460079080519060200190620000e19291906200012c565b508360089080519060200190620000fa9291906200012c565b5081600181905550826006819055506000600381905550600060048190555080600581905550505050505050620004e7565b8280546200013a906200041f565b90600052602060002090601f0160209004810192826200015e5760008555620001aa565b82601f106200017957805160ff1916838001178555620001aa565b82800160010185558215620001aa579182015b82811115620001a95782518255916020019190600101906200018c565b5b509050620001b99190620001bd565b5090565b5b80821115620001d8576000816000905550600101620001be565b5090565b6000620001f3620001ed8462000378565b62000344565b9050828152602081018484840111156200020c57600080fd5b62000219848285620003e9565b509392505050565b6000815190506200023281620004b3565b92915050565b600082601f8301126200024a57600080fd5b81516200025c848260208601620001dc565b91505092915050565b6000815190506200027681620004cd565b92915050565b60008060008060008060c087890312156200029657600080fd5b6000620002a689828a0162000221565b965050602087015167ffffffffffffffff811115620002c457600080fd5b620002d289828a0162000238565b955050604087015167ffffffffffffffff811115620002f057600080fd5b620002fe89828a0162000238565b94505060606200031189828a0162000265565b93505060806200032489828a0162000265565b92505060a06200033789828a0162000265565b9150509295509295509295565b6000604051905081810181811067ffffffffffffffff821117156200036e576200036d62000484565b5b8060405250919050565b600067ffffffffffffffff82111562000396576200039562000484565b5b601f19601f8301169050602081019050919050565b6000620003b882620003bf565b9050919050565b600073ffffffffffffffffffffffffffffffffffffffff82169050919050565b6000819050919050565b60005b8381101562000409578082015181840152602081019050620003ec565b8381111562000419576000848401525b50505050565b600060028204905060018216806200043857607f821691505b602082108114156200044f576200044e62000455565b5b50919050565b7f4e487b7100000000000000000000000000000000000000000000000000000000600052602260045260246000fd5b7f4e487b7100000000000000000000000000000000000000000000000000000000600052604160045260246000fd5b620004be81620003ab565b8114620004ca57600080fd5b50565b620004d881620003df565b8114620004e457600080fd5b50565b6126b180620004f76000396000f3fe60806040526004361061012a5760003560e01c806386f32586116100ab578063c19d93fb1161006f578063c19d93fb146103c9578063ce845d1d146103f4578063d7bb99ba1461041f578063dc296ae114610429578063f1d81ef514610466578063fbbf93a0146104915761012a565b806386f3258614610302578063937e09b114610319578063a7f4a35614610344578063aa6e90c014610382578063b2d5ae441461039e5761012a565b80634a79d50c116100f25780634a79d50c146102165780634c4cea5a146102415780637284e4161461026c578063767e0b9c1461029757806381d12c58146102c05761012a565b806302d05d3f1461012f578063034410061461015a5780630785001c1461018357806337f944cc146101ae57806342e94c90146101d9575b600080fd5b34801561013b57600080fd5b506101446104c4565b6040516101519190611f51565b60405180910390f35b34801561016657600080fd5b50610181600480360381019061017c9190611ac6565b6104e8565b005b34801561018f57600080fd5b5061019861073a565b6040516101a59190612207565b60405180910390f35b3480156101ba57600080fd5b506101c3610740565b6040516101d09190612207565b60405180910390f35b3480156101e557600080fd5b5061020060048036038101906101fb9190611a49565b610746565b60405161020d9190612207565b60405180910390f35b34801561022257600080fd5b5061022b61075e565b604051610238919061209d565b60405180910390f35b34801561024d57600080fd5b506102566107ec565b6040516102639190612207565b60405180910390f35b34801561027857600080fd5b506102816107f2565b60405161028e919061209d565b60405180910390f35b3480156102a357600080fd5b506102be60048036038101906102b99190611b2b565b610880565b005b3480156102cc57600080fd5b506102e760048036038101906102e29190611ac6565b610af3565b6040516102f9969594939291906120bf565b60405180910390f35b34801561030e57600080fd5b50610317610bf4565b005b34801561032557600080fd5b5061032e610cc4565b60405161033b9190612207565b60405180910390f35b34801561035057600080fd5b5061036b60048036038101906103669190611a49565b610cca565b604051610379929190612059565b60405180910390f35b61039c60048036038101906103979190611a72565b610d7b565b005b3480156103aa57600080fd5b506103b3610f76565b6040516103c0919061203e565b60405180910390f35b3480156103d557600080fd5b506103de611227565b6040516103eb9190612082565b60405180910390f35b34801561040057600080fd5b5061040961123a565b6040516104169190612207565b60405180910390f35b610427611240565b005b34801561043557600080fd5b50610450600480360381019061044b9190611aef565b6114d0565b60405161045d919061203e565b60405180910390f35b34801561047257600080fd5b5061047b611586565b6040516104889190612207565b60405180910390f35b34801561049d57600080fd5b506104a661158c565b6040516104bb99989796959493929190611f6c565b60405180910390f35b60008054906101000a900473ffffffffffffffffffffffffffffffffffffffff1681565b6000806002811115610523577f4e487b7100000000000000000000000000000000000000000000000000000000600052602160045260246000fd5b600960009054906101000a900460ff16600281111561056b577f4e487b7100000000000000000000000000000000000000000000000000000000600052602160045260246000fd5b1461057557600080fd5b6000600c83815481106105b1577f4e487b7100000000000000000000000000000000000000000000000000000000600052603260045260246000fd5b906000526020600020906006020190508060020160149054906101000a900460ff1615610613576040517f08c379a000000000000000000000000000000000000000000000000000000000815260040161060a90612167565b60405180910390fd5b8060040154816003015411801561064b57506002600b5461063491906122f5565b81600401548260030154610648919061229f565b10155b61068a576040517f08c379a000000000000000000000000000000000000000000000000000000000815260040161068190612187565b60405180910390fd5b8060020160009054906101000a900473ffffffffffffffffffffffffffffffffffffffff1673ffffffffffffffffffffffffffffffffffffffff166108fc82600101549081150290604051600060405180830381858888f193505050501580156106f8573d6000803e3d6000fd5b50610712816001015460045461171090919063ffffffff16565b60048190555060018160020160146101000a81548160ff021916908315150217905550505050565b60015481565b60065481565b600a6020528060005260406000206000915090505481565b6007805461076b906124ab565b80601f0160208091040260200160405190810160405280929190818152602001828054610797906124ab565b80156107e45780601f106107b9576101008083540402835291602001916107e4565b820191906000526020600020905b8154815290600101906020018083116107c757829003601f168201915b505050505081565b60025481565b600880546107ff906124ab565b80601f016020809104026020016040519081016040528092919081815260200182805461082b906124ab565b80156108785780601f1061084d57610100808354040283529160200191610878565b820191906000526020600020905b81548152906001019060200180831161085b57829003601f168201915b505050505081565b6000600c83815481106108bc577f4e487b7100000000000000000000000000000000000000000000000000000000600052603260045260246000fd5b90600052602060002090600602019050600554600a60003373ffffffffffffffffffffffffffffffffffffffff1673ffffffffffffffffffffffffffffffffffffffff168152602001908152602001600020541015610950576040517f08c379a0000000000000000000000000000000000000000000000000000000008152600401610947906121a7565b60405180910390fd5b8060050160003373ffffffffffffffffffffffffffffffffffffffff1673ffffffffffffffffffffffffffffffffffffffff16815260200190815260200160002060009054906101000a900460ff16156109df576040517f08c379a00000000000000000000000000000000000000000000000000000000081526004016109d690612147565b60405180910390fd5b60018160050160003373ffffffffffffffffffffffffffffffffffffffff1673ffffffffffffffffffffffffffffffffffffffff16815260200190815260200160002060006101000a81548160ff0219169083151502179055508115610a5e57806003016000815480929190610a54906124dd565b9190505550610a79565b806004016000815480929190610a73906124dd565b91905055505b80600401548160030154118015610ab157506002600b54610a9a91906122f5565b81600401548260030154610aae919061229f565b10155b15610aee577f609c7aaa4b73c74a8ac76187fc4a2b82a60bbd159c4e47b5bafd21e97502047183604051610ae59190612207565b60405180910390a15b505050565b600c8181548110610b0357600080fd5b9060005260206000209060060201600091509050806000018054610b26906124ab565b80601f0160208091040260200160405190810160405280929190818152602001828054610b52906124ab565b8015610b9f5780601f10610b7457610100808354040283529160200191610b9f565b820191906000526020600020905b815481529060010190602001808311610b8257829003601f168201915b5050505050908060010154908060020160009054906101000a900473ffffffffffffffffffffffffffffffffffffffff16908060020160149054906101000a900460ff16908060030154908060040154905086565b60015460035410610c5e576002600960006101000a81548160ff02191690836002811115610c4b577f4e487b7100000000000000000000000000000000000000000000000000000000600052602160045260246000fd5b0217905550610c58611726565b50610cbb565b600654421115610cba576001600960006101000a81548160ff02191690836002811115610cb4577f4e487b7100000000000000000000000000000000000000000000000000000000600052602160045260246000fd5b02179055505b5b42600281905550565b60055481565b600080600554600a60008573ffffffffffffffffffffffffffffffffffffffff1673ffffffffffffffffffffffffffffffffffffffff1681526020019081526020016000205410610d22576001915060009050610d76565b60009150600a60008473ffffffffffffffffffffffffffffffffffffffff1673ffffffffffffffffffffffffffffffffffffffff16815260200190815260200160002054600554610d739190612380565b90505b915091565b6000806002811115610db6577f4e487b7100000000000000000000000000000000000000000000000000000000600052602160045260246000fd5b600960009054906101000a900460ff166002811115610dfe577f4e487b7100000000000000000000000000000000000000000000000000000000600052602160045260246000fd5b14610e0857600080fd5b60008054906101000a900473ffffffffffffffffffffffffffffffffffffffff1673ffffffffffffffffffffffffffffffffffffffff163373ffffffffffffffffffffffffffffffffffffffff1614610e96576040517f08c379a0000000000000000000000000000000000000000000000000000000008152600401610e8d90612127565b60405180910390fd5b6000600c600181600181540180825580915050039060005260206000209060060201905083816000019080519060200190610ed29291906118ff565b5082816001018190555060008054906101000a900473ffffffffffffffffffffffffffffffffffffffff168160020160006101000a81548173ffffffffffffffffffffffffffffffffffffffff021916908373ffffffffffffffffffffffffffffffffffffffff16021790555060008160020160146101000a81548160ff021916908315150217905550600081600301819055506000816004018190555050505050565b60006001806002811115610fb3577f4e487b7100000000000000000000000000000000000000000000000000000000600052602160045260246000fd5b600960009054906101000a900460ff166002811115610ffb577f4e487b7100000000000000000000000000000000000000000000000000000000600052602160045260246000fd5b1461100557600080fd5b6000600a60003373ffffffffffffffffffffffffffffffffffffffff1673ffffffffffffffffffffffffffffffffffffffff1681526020019081526020016000205411611087576040517f08c379a000000000000000000000000000000000000000000000000000000000815260040161107e906121c7565b60405180910390fd5b6000600a60003373ffffffffffffffffffffffffffffffffffffffff1673ffffffffffffffffffffffffffffffffffffffff1681526020019081526020016000205490506000600a60003373ffffffffffffffffffffffffffffffffffffffff1673ffffffffffffffffffffffffffffffffffffffff16815260200190815260200160002081905550600060035460045460646111249190612326565b61112e91906122f5565b90503373ffffffffffffffffffffffffffffffffffffffff166108fc606484846111589190612326565b61116291906122f5565b9081150290604051600060405180830381858888f193505050506111cf5781600a60003373ffffffffffffffffffffffffffffffffffffffff1673ffffffffffffffffffffffffffffffffffffffff16815260200190815260200160002081905550600093505050611223565b6111e48260035461171090919063ffffffff16565b600381905550611216606483836111fb9190612326565b61120591906122f5565b60045461171090919063ffffffff16565b6004819055506001935050505b5090565b600960009054906101000a900460ff1681565b60035481565b600080600281111561127b577f4e487b7100000000000000000000000000000000000000000000000000000000600052602160045260246000fd5b600960009054906101000a900460ff1660028111156112c3577f4e487b7100000000000000000000000000000000000000000000000000000000600052602160045260246000fd5b146112cd57600080fd5b60008054906101000a900473ffffffffffffffffffffffffffffffffffffffff1673ffffffffffffffffffffffffffffffffffffffff163373ffffffffffffffffffffffffffffffffffffffff16141561135c576040517f08c379a0000000000000000000000000000000000000000000000000000000008152600401611353906121e7565b60405180910390fd5b6000600a60003373ffffffffffffffffffffffffffffffffffffffff1673ffffffffffffffffffffffffffffffffffffffff1681526020019081526020016000205414156113bd57600b60008154809291906113b7906124dd565b91905055505b61140f34600a60003373ffffffffffffffffffffffffffffffffffffffff1673ffffffffffffffffffffffffffffffffffffffff168152602001908152602001600020546118e990919063ffffffff16565b600a60003373ffffffffffffffffffffffffffffffffffffffff1673ffffffffffffffffffffffffffffffffffffffff16815260200190815260200160002081905550611467346003546118e990919063ffffffff16565b600381905550611482346004546118e990919063ffffffff16565b6004819055507f5cdc4ab8d637538ead6cc1904d4160343656c8c82bd266635cfd31ac008fffe033346003546040516114bd93929190612007565b60405180910390a16114cd610bf4565b50565b600080600c848154811061150d577f4e487b7100000000000000000000000000000000000000000000000000000000600052603260045260246000fd5b906000526020600020906006020190508060050160008473ffffffffffffffffffffffffffffffffffffffff1673ffffffffffffffffffffffffffffffffffffffff16815260200190815260200160002060009054906101000a900460ff161561157a576001915061157f565b600091505b5092915050565b60045481565b600060608060008060008060008060008054906101000a900473ffffffffffffffffffffffffffffffffffffffff169850600780546115ca906124ab565b80601f01602080910402602001604051908101604052809291908181526020018280546115f6906124ab565b80156116435780601f1061161857610100808354040283529160200191611643565b820191906000526020600020905b81548152906001019060200180831161162657829003601f168201915b5050505050975060088054611657906124ab565b80601f0160208091040260200160405190810160405280929190818152602001828054611683906124ab565b80156116d05780601f106116a5576101008083540402835291602001916116d0565b820191906000526020600020905b8154815290600101906020018083116116b357829003601f168201915b505050505096506006549550600960009054906101000a900460ff169450600354935060015492506005549150600c805490509050909192939495969798565b6000818361171e9190612380565b905092915050565b60006002806002811115611763577f4e487b7100000000000000000000000000000000000000000000000000000000600052602160045260246000fd5b600960009054906101000a900460ff1660028111156117ab577f4e487b7100000000000000000000000000000000000000000000000000000000600052602160045260246000fd5b146117b557600080fd5b600060045490506000600381905550600060048190555060008054906101000a900473ffffffffffffffffffffffffffffffffffffffff1673ffffffffffffffffffffffffffffffffffffffff166108fc829081150290604051600060405180830381858888f1935050505015611887577f2f256415efc8561af8db667cb242964b19be7380f379ccdafaa0e54a6f6b706960008054906101000a900473ffffffffffffffffffffffffffffffffffffffff166040516118759190611f36565b60405180910390a160019250506118e5565b806003819055506002600960006101000a81548160ff021916908360028111156118da577f4e487b7100000000000000000000000000000000000000000000000000000000600052602160045260246000fd5b021790555060009250505b5090565b600081836118f7919061229f565b905092915050565b82805461190b906124ab565b90600052602060002090601f01602090048101928261192d5760008555611974565b82601f1061194657805160ff1916838001178555611974565b82800160010185558215611974579182015b82811115611973578251825591602001919060010190611958565b5b5090506119819190611985565b5090565b5b8082111561199e576000816000905550600101611986565b5090565b60006119b56119b084612253565b612222565b9050828152602081018484840111156119cd57600080fd5b6119d8848285612469565b509392505050565b6000813590506119ef81612636565b92915050565b600081359050611a048161264d565b92915050565b600082601f830112611a1b57600080fd5b8135611a2b8482602086016119a2565b91505092915050565b600081359050611a4381612664565b92915050565b600060208284031215611a5b57600080fd5b6000611a69848285016119e0565b91505092915050565b60008060408385031215611a8557600080fd5b600083013567ffffffffffffffff811115611a9f57600080fd5b611aab85828601611a0a565b9250506020611abc85828601611a34565b9150509250929050565b600060208284031215611ad857600080fd5b6000611ae684828501611a34565b91505092915050565b60008060408385031215611b0257600080fd5b6000611b1085828601611a34565b9250506020611b21858286016119e0565b9150509250929050565b60008060408385031215611b3e57600080fd5b6000611b4c85828601611a34565b9250506020611b5d858286016119f5565b9150509250929050565b611b7081612421565b82525050565b611b7f816123c6565b82525050565b611b8e816123b4565b82525050565b611b9d816123d8565b82525050565b611bac81612433565b82525050565b6000611bbd82612283565b611bc7818561228e565b9350611bd7818560208601612478565b611be081612611565b840191505092915050565b6000611bf8603c8361228e565b91507f596f75206d757374206265207468652063726561746f72206f6620746865206360008301527f616d706169676e20746f20637265617465206120726571756573742e000000006020830152604082019050919050565b6000611c5e60288361228e565b91507f596f75206861766520616c726561647920766f74656420666f7220746869732060008301527f726571756573742e0000000000000000000000000000000000000000000000006020830152604082019050919050565b6000611cc4603b8361228e565b91507f5265717565737420697320616c726561647920636f6d706c6574652c20796f7560008301527f2063616e206e6f206c6f6e6765722066696e616c697a652069742e00000000006020830152604082019050919050565b6000611d2a60568361228e565b91507f54686520766f74696e67206973206e6f742079657420646f6e652e205468652060008301527f7265717565737420686173206e6f74207265616368656420746865206e756d6260208301527f6572206f6620766f746572732072657175697265642e000000000000000000006040830152606082019050919050565b6000611db660788361228e565b91507f596f752068617665206e6f74207265616368656420746865206d696e696d756d60008301527f2073756d20746f206265206120636f6e7472696275746f722e204f6e6c79207460208301527f686f73652077686f206861766520646f6e61746564207468652072657175697260408301527f656420616d6f756e742063616e20626520766f746572732e00000000000000006060830152608082019050919050565b6000611e6860328361228e565b91507f54686520636f6e747269627574696f6e20697320302c2063616e6e6f7420707260008301527f6f63657373207472616e73616374696f6e2e00000000000000000000000000006020830152604082019050919050565b6000611ece602e8361228e565b91507f5468652063726561746f722063616e6e6f7420636f6e74726962757465206f6e60008301527f206f776e2063616d706169676e2e0000000000000000000000000000000000006020830152604082019050919050565b611f3081612417565b82525050565b6000602082019050611f4b6000830184611b67565b92915050565b6000602082019050611f666000830184611b76565b92915050565b600061012082019050611f82600083018c611b76565b8181036020830152611f94818b611bb2565b90508181036040830152611fa8818a611bb2565b9050611fb76060830189611f27565b611fc46080830188611ba3565b611fd160a0830187611f27565b611fde60c0830186611f27565b611feb60e0830185611f27565b611ff9610100830184611f27565b9a9950505050505050505050565b600060608201905061201c6000830186611b85565b6120296020830185611f27565b6120366040830184611f27565b949350505050565b60006020820190506120536000830184611b94565b92915050565b600060408201905061206e6000830185611b94565b61207b6020830184611f27565b9392505050565b60006020820190506120976000830184611ba3565b92915050565b600060208201905081810360008301526120b78184611bb2565b905092915050565b600060c08201905081810360008301526120d98189611bb2565b90506120e86020830188611f27565b6120f56040830187611b85565b6121026060830186611b94565b61210f6080830185611f27565b61211c60a0830184611f27565b979650505050505050565b6000602082019050818103600083015261214081611beb565b9050919050565b6000602082019050818103600083015261216081611c51565b9050919050565b6000602082019050818103600083015261218081611cb7565b9050919050565b600060208201905081810360008301526121a081611d1d565b9050919050565b600060208201905081810360008301526121c081611da9565b9050919050565b600060208201905081810360008301526121e081611e5b565b9050919050565b6000602082019050818103600083015261220081611ec1565b9050919050565b600060208201905061221c6000830184611f27565b92915050565b6000604051905081810181811067ffffffffffffffff82111715612249576122486125e2565b5b8060405250919050565b600067ffffffffffffffff82111561226e5761226d6125e2565b5b601f19601f8301169050602081019050919050565b600081519050919050565b600082825260208201905092915050565b60006122aa82612417565b91506122b583612417565b9250827fffffffffffffffffffffffffffffffffffffffffffffffffffffffffffffffff038211156122ea576122e9612526565b5b828201905092915050565b600061230082612417565b915061230b83612417565b92508261231b5761231a612555565b5b828204905092915050565b600061233182612417565b915061233c83612417565b9250817fffffffffffffffffffffffffffffffffffffffffffffffffffffffffffffffff048311821515161561237557612374612526565b5b828202905092915050565b600061238b82612417565b915061239683612417565b9250828210156123a9576123a8612526565b5b828203905092915050565b60006123bf826123f7565b9050919050565b60006123d1826123f7565b9050919050565b60008115159050919050565b60008190506123f282612622565b919050565b600073ffffffffffffffffffffffffffffffffffffffff82169050919050565b6000819050919050565b600061242c82612445565b9050919050565b600061243e826123e4565b9050919050565b600061245082612457565b9050919050565b6000612462826123f7565b9050919050565b82818337600083830152505050565b60005b8381101561249657808201518184015260208101905061247b565b838111156124a5576000848401525b50505050565b600060028204905060018216806124c357607f821691505b602082108114156124d7576124d66125b3565b5b50919050565b60006124e882612417565b91507fffffffffffffffffffffffffffffffffffffffffffffffffffffffffffffffff82141561251b5761251a612526565b5b600182019050919050565b7f4e487b7100000000000000000000000000000000000000000000000000000000600052601160045260246000fd5b7f4e487b7100000000000000000000000000000000000000000000000000000000600052601260045260246000fd5b7f4e487b7100000000000000000000000000000000000000000000000000000000600052602160045260246000fd5b7f4e487b7100000000000000000000000000000000000000000000000000000000600052602260045260246000fd5b7f4e487b7100000000000000000000000000000000000000000000000000000000600052604160045260246000fd5b6000601f19601f8301169050919050565b6003811061263357612632612584565b5b50565b61263f816123b4565b811461264a57600080fd5b50565b612656816123d8565b811461266157600080fd5b50565b61266d81612417565b811461267857600080fd5b5056fea26469706673582212209beff6576ff41e34cb873d755b8625336e7a23cd43474b6fcc1829718376785b64736f6c63430008000033a2646970667358221220dbdf190cf9cd1fcf576bd9d2f450ea328027ca08371affd60d45cd7a6968d05d64736f6c63430008000033",
  "linkReferences": {},
  "deployedLinkReferences": {}
}